{
  "contractName": "CaseMonitor",
  "abi": [
    {
      "constant": true,
      "inputs": [
        {
          "internalType": "bytes16",
          "name": "_uuid",
          "type": "bytes16"
        }
      ],
      "name": "_getCaseIndex",
      "outputs": [
        {
          "internalType": "uint256",
          "name": "",
          "type": "uint256"
        }
      ],
      "payable": false,
      "stateMutability": "view",
      "type": "function"
    },
    {
      "constant": false,
      "inputs": [
        {
          "internalType": "bytes16",
          "name": "_uuid",
          "type": "bytes16"
        },
        {
          "internalType": "uint256",
          "name": "_date",
          "type": "uint256"
        }
      ],
      "name": "addCase",
      "outputs": [
        {
          "internalType": "uint256",
          "name": "",
          "type": "uint256"
        }
      ],
      "payable": false,
      "stateMutability": "nonpayable",
      "type": "function"
    },
    {
      "constant": false,
      "inputs": [
        {
          "internalType": "bytes16",
          "name": "_uuid",
          "type": "bytes16"
        },
        {
          "internalType": "uint256",
          "name": "_date",
          "type": "uint256"
        },
        {
          "internalType": "enum CaseMonitor.CaseState",
          "name": "_state",
          "type": "uint8"
        },
        {
          "internalType": "uint256",
          "name": "_offset",
          "type": "uint256"
        }
      ],
      "name": "updateCase",
      "outputs": [],
      "payable": false,
      "stateMutability": "nonpayable",
      "type": "function"
    },
    {
      "constant": false,
      "inputs": [
        {
          "internalType": "bytes16",
          "name": "_uuid",
          "type": "bytes16"
        },
        {
          "internalType": "enum CaseMonitor.CaseState",
          "name": "_state",
          "type": "uint8"
        },
        {
          "internalType": "uint256",
          "name": "_pDate",
          "type": "uint256"
        },
        {
          "internalType": "uint256",
          "name": "_payHistory",
          "type": "uint256"
        }
      ],
      "name": "addPayment",
      "outputs": [],
      "payable": false,
      "stateMutability": "nonpayable",
      "type": "function"
    },
    {
      "constant": true,
      "inputs": [
        {
          "internalType": "bytes16",
          "name": "_uuid",
          "type": "bytes16"
        }
      ],
      "name": "caseExists",
      "outputs": [
        {
          "internalType": "bool",
          "name": "",
          "type": "bool"
        }
      ],
      "payable": false,
      "stateMutability": "view",
      "type": "function"
    },
    {
      "constant": true,
      "inputs": [],
      "name": "getAllCases",
      "outputs": [
        {
          "internalType": "bytes16[]",
          "name": "",
          "type": "bytes16[]"
        }
      ],
      "payable": false,
      "stateMutability": "view",
      "type": "function"
    },
    {
      "constant": true,
      "inputs": [
        {
          "internalType": "bytes16",
          "name": "_uuid",
          "type": "bytes16"
        }
      ],
      "name": "getCase",
      "outputs": [
        {
          "internalType": "bytes16",
          "name": "uuid",
          "type": "bytes16"
        },
        {
          "internalType": "uint256",
          "name": "creationDate",
          "type": "uint256"
        },
        {
          "internalType": "uint256[]",
          "name": "datesHistory",
          "type": "uint256[]"
        },
        {
          "internalType": "enum CaseMonitor.CaseState[]",
          "name": "statesHistory",
          "type": "uint8[]"
        },
        {
          "internalType": "enum CaseMonitor.CaseState",
          "name": "currState",
          "type": "uint8"
        },
        {
          "internalType": "uint256[]",
          "name": "paymentDateHistory",
          "type": "uint256[]"
        },
        {
          "internalType": "uint256[]",
          "name": "paymentValueHistory",
          "type": "uint256[]"
        },
        {
          "internalType": "uint256",
          "name": "paymentOffset",
          "type": "uint256"
        }
      ],
      "payable": false,
      "stateMutability": "view",
      "type": "function"
    },
    {
      "constant": false,
      "inputs": [
        {
          "internalType": "bytes16",
          "name": "_uuid",
          "type": "bytes16"
        }
      ],
      "name": "deleteCase",
      "outputs": [],
      "payable": false,
      "stateMutability": "nonpayable",
      "type": "function"
    }
  ],
  "bytecode": "0x608060405234801561001057600080fd5b506116a0806100206000396000f3fe608060405234801561001057600080fd5b50600436106100885760003560e01c8063d4988c151161005b578063d4988c15146101e7578063d840e71714610240578063ea028820146103fe578063fb40c22a1461045d57610088565b8063195a00a41461008d578063235f4c12146100ef57806345b10ce41461013057806377c4327f14610185575b600080fd5b6100ed600480360360808110156100a357600080fd5b8101908080356fffffffffffffffffffffffffffffffff19169060200190929190803560ff16906020019092919080359060200190929190803590602001909291905050506104bc565b005b61012e6004803603602081101561010557600080fd5b8101908080356fffffffffffffffffffffffffffffffff1916906020019092919050505061067c565b005b61016f6004803603602081101561014657600080fd5b8101908080356fffffffffffffffffffffffffffffffff19169060200190929190505050610bc4565b6040518082815260200191505060405180910390f35b6101e56004803603608081101561019b57600080fd5b8101908080356fffffffffffffffffffffffffffffffff1916906020019092919080359060200190929190803560ff16906020019092919080359060200190929190505050610c07565b005b610226600480360360208110156101fd57600080fd5b8101908080356fffffffffffffffffffffffffffffffff19169060200190929190505050610d03565b604051808215151515815260200191505060405180910390f35b61027f6004803603602081101561025657600080fd5b8101908080356fffffffffffffffffffffffffffffffff19169060200190929190505050610d8b565b60405180896fffffffffffffffffffffffffffffffff19166fffffffffffffffffffffffffffffffff1916815260200188815260200180602001806020018760048111156102c957fe5b60ff168152602001806020018060200186815260200185810385528b818151815260200191508051906020019060200280838360005b8381101561031a5780820151818401526020810190506102ff565b5050505090500185810384528a818151815260200191508051906020019060200280838360005b8381101561035c578082015181840152602081019050610341565b50505050905001858103835288818151815260200191508051906020019060200280838360005b8381101561039e578082015181840152602081019050610383565b50505050905001858103825287818151815260200191508051906020019060200280838360005b838110156103e05780820151818401526020810190506103c5565b505050509050019c5050505050505050505050505060405180910390f35b6104476004803603604081101561041457600080fd5b8101908080356fffffffffffffffffffffffffffffffff1916906020019092919080359060200190929190505050610fa0565b6040518082815260200191505060405180910390f35b6104656112d0565b6040518080602001828103825283818151815260200191508051906020019060200280838360005b838110156104a857808201518184015260208101905061048d565b505050509050019250505060405180910390f35b6104c584610d03565b6104ce57600080fd5b60006104d985610bc4565b905060008082815481106104e957fe5b9060005260206000209060080201905060008160050160008154811061050b57fe5b9060005260206000200154141561055f57838160050160008154811061052d57fe5b9060005260206000200181905550828160060160008154811061054c57fe5b90600052602060002001819055506105bc565b80600501849080600181540180825580915050906001820390600052602060002001600090919290919091505550806006018390806001815401808255809150509060018203906000526020600020016000909192909190915055505b60008160070181905550838160010181905550806002018490806001815401808255809150509060018203906000526020600020016000909192909190915055508060030185908060018154018082558091505090600182039060005260206000209060209182820401919006909192909190916101000a81548160ff0219169083600481111561064957fe5b021790555050848160040160006101000a81548160ff0219169083600481111561066f57fe5b0217905550505050505050565b61068581610d03565b61068e57600080fd5b600061069982610bc4565b90506001600080549050038114610b15576106b26113bc565b600082815481106106bf57fe5b9060005260206000209060080201604051806101000160405290816000820160009054906101000a900460801b6fffffffffffffffffffffffffffffffff19166fffffffffffffffffffffffffffffffff19168152602001600182015481526020016002820180548060200260200160405190810160405280929190818152602001828054801561076f57602002820191906000526020600020905b81548152602001906001019080831161075b575b50505050508152602001600382018054806020026020016040519081016040528092919081815260200182805480156107f557602002820191906000526020600020906000905b82829054906101000a900460ff1660048111156107cf57fe5b815260200190600101906020826000010492830192600103820291508084116107b65790505b505050505081526020016004820160009054906101000a900460ff16600481111561081c57fe5b600481111561082757fe5b81526020016005820180548060200260200160405190810160405280929190818152602001828054801561087a57602002820191906000526020600020905b815481526020019060010190808311610866575b50505050508152602001600682018054806020026020016040519081016040528092919081815260200182805480156108d257602002820191906000526020600020905b8154815260200190600101908083116108be575b5050505050815260200160078201548152505090506000600160008054905003815481106108fc57fe5b90600052602060002090600802016000838154811061091757fe5b90600052602060002090600802016000820160009054906101000a900460801b8160000160006101000a8154816fffffffffffffffffffffffffffffffff021916908360801c021790555060018201548160010155600282018160020190805461098292919061141f565b506003820181600301908054610999929190611471565b506004820160009054906101000a900460ff168160040160006101000a81548160ff021916908360048111156109cb57fe5b021790555060058201816005019080546109e692919061141f565b5060068201816006019080546109fd92919061141f565b506007820154816007015590505080600060016000805490500381548110610a2157fe5b906000526020600020906008020160008201518160000160006101000a8154816fffffffffffffffffffffffffffffffff021916908360801c0217905550602082015181600101556040820151816002019080519060200190610a859291906114d1565b506060820151816003019080519060200190610aa292919061151e565b5060808201518160040160006101000a81548160ff02191690836004811115610ac757fe5b021790555060a0820151816005019080519060200190610ae89291906114d1565b5060c0820151816006019080519060200190610b059291906114d1565b5060e08201518160070155905050505b6000805480610b2057fe5b6001900381819060005260206000209060080201600080820160006101000a8154906fffffffffffffffffffffffffffffffff02191690556001820160009055600282016000610b7091906115cd565b600382016000610b8091906115ee565b6004820160006101000a81549060ff0219169055600582016000610ba491906115cd565b600682016000610bb491906115cd565b6007820160009055505090555050565b600060016000836fffffffffffffffffffffffffffffffff19166fffffffffffffffffffffffffffffffff19168152602001908152602001600020549050919050565b610c1084610d03565b610c1957600080fd5b6000610c2485610bc4565b90506000808281548110610c3457fe5b90600052602060002090600802019050848160010181905550806002018590806001815401808255809150509060018203906000526020600020016000909192909190915055508060030184908060018154018082558091505090600182039060005260206000209060209182820401919006909192909190916101000a81548160ff02191690836004811115610cc757fe5b021790555050838160040160006101000a81548160ff02191690836004811115610ced57fe5b0217905550828160070181905550505050505050565b6000806000805490501415610d1b5760009050610d86565b816fffffffffffffffffffffffffffffffff19166000610d3a84610bc4565b81548110610d4457fe5b906000526020600020906008020160000160009054906101000a900460801b6fffffffffffffffffffffffffffffffff19161415610d855760019050610d86565b5b919050565b60008060608060006060806000610da189610d03565b610daa57600080fd5b600080610db68b610bc4565b81548110610dc057fe5b906000526020600020906008020190508060000160009054906101000a900460801b816001015482600201836003018460040160009054906101000a900460ff168560050186600601876007015485805480602002602001604051908101604052809291908181526020018280548015610e5957602002820191906000526020600020905b815481526020019060010190808311610e45575b5050505050955084805480602002602001604051908101604052809291908181526020018280548015610ed957602002820191906000526020600020906000905b82829054906101000a900460ff166004811115610eb357fe5b81526020019060010190602082600001049283019260010382029150808411610e9a5790505b5050505050945082805480602002602001604051908101604052809291908181526020018280548015610f2b57602002820191906000526020600020905b815481526020019060010190808311610f17575b5050505050925081805480602002602001604051908101604052809291908181526020018280548015610f7d57602002820191906000526020600020905b815481526020019060010190808311610f69575b505050505091509850985098509850985098509850985050919395975091939597565b6000610fab83610d03565b15610fb557600080fd5b60606001604051908082528060200260200182016040528015610fe75781602001602082028038833980820191505090505b5090508281600081518110610ff857fe5b602002602001018181525050606060016040519080825280602002602001820160405280156110365781602001602082028038833980820191505090505b50905060008160008151811061104857fe5b6020026020010190600481111561105b57fe5b9081600481111561106857fe5b815250506060600160405190808252806020026020018201604052801561109e5781602001602082028038833980820191505090505b5090506000816000815181106110b057fe5b602002602001018181525050606060016040519080825280602002602001820160405280156110ee5781602001602082028038833980820191505090505b50905060008160008151811061110057fe5b6020026020010181815250506000604051806101000160405280896fffffffffffffffffffffffffffffffff191681526020018881526020018681526020018581526020016000600481111561115257fe5b815260200184815260200183815260200160008152509080600181540180825580915050906001820390600052602060002090600802016000909192909190915060008201518160000160006101000a8154816fffffffffffffffffffffffffffffffff021916908360801c02179055506020820151816001015560408201518160020190805190602001906111e99291906114d1565b50606082015181600301908051906020019061120692919061151e565b5060808201518160040160006101000a81548160ff0219169083600481111561122b57fe5b021790555060a082015181600501908051906020019061124c9291906114d1565b5060c08201518160060190805190602001906112699291906114d1565b5060e082015181600701555050506000600160008054905003905080600160008a6fffffffffffffffffffffffffffffffff19166fffffffffffffffffffffffffffffffff1916815260200190815260200160002081905550809550505050505092915050565b6060806000805490506040519080825280602002602001820160405280156113075781602001602082028038833980820191505090505b5090506000808054905011156113b55760008090506000808054905090505b60008111156113b2576000600182038154811061133f57fe5b906000526020600020906008020160000160009054906101000a900460801b83838060010194508151811061137057fe5b60200260200101906fffffffffffffffffffffffffffffffff191690816fffffffffffffffffffffffffffffffff191681525050808060019003915050611326565b50505b8091505090565b60405180610100016040528060006fffffffffffffffffffffffffffffffff191681526020016000815260200160608152602001606081526020016000600481111561140457fe5b81526020016060815260200160608152602001600081525090565b8280548282559060005260206000209081019282156114605760005260206000209182015b8281111561145f578254825591600101919060010190611444565b5b50905061146d9190611616565b5090565b82805482825590600052602060002090601f016020900481019282156114c057600052602060002091601f016020900482015b828111156114bf5782548255916001019190600101906114a4565b5b5090506114cd919061163b565b5090565b82805482825590600052602060002090810192821561150d579160200282015b8281111561150c5782518255916020019190600101906114f1565b5b50905061151a9190611616565b5090565b82805482825590600052602060002090601f016020900481019282156115bc5791602002820160005b8382111561158d57835183826101000a81548160ff0219169083600481111561156c57fe5b02179055509260200192600101602081600001049283019260010302611547565b80156115ba5782816101000a81549060ff021916905560010160208160000104928301926001030261158d565b505b5090506115c9919061163b565b5090565b50805460008255906000526020600020908101906115eb9190611616565b50565b50805460008255601f0160209004906000526020600020908101906116139190611616565b50565b61163891905b8082111561163457600081600090555060010161161c565b5090565b90565b61166891905b8082111561166457600081816101000a81549060ff021916905550600101611641565b5090565b9056fea265627a7a723158205d69414cf23d0ed211cb1dc575efb9a71fe6b2e94c2402083f5a8cd671394ac564736f6c63430005100032",
  "source": "pragma solidity >=0.4.21;\r\n\r\ncontract CaseMonitor{\r\n\r\n    Case[] cases; \r\n    mapping(bytes16 => uint) caseUuidToIndex; \r\n\r\n    \r\n\r\n    //defines a case along with its state\r\n    struct Case {\r\n        bytes16 uuid;\r\n        uint latestDate;\r\n        uint[] datesHistory;\r\n        CaseState[] statesHistory; \r\n        CaseState currState;\r\n        uint[] paymentDateHistory;\r\n        uint[] paymentValueHistory;\r\n        uint paymentOffset;\r\n    }\r\n\r\n    //possible case states \r\n    enum CaseState {\r\n        Undefined,    //case has not been processed\r\n        Accepted,     //case has been accepted\r\n        Rejected,     //case has been rejected\r\n        Paid,         //case has been paid \r\n        Paused        //case is paused\r\n    }\r\n\r\n    //Case currCase;\r\n\r\n    function _getCaseIndex(bytes16 _uuid) public view returns (uint) {\r\n        return caseUuidToIndex[_uuid]; \r\n    }\r\n\r\n    function addCase(bytes16 _uuid, uint _date) public returns(uint){\r\n\r\n        //hash the crucial info to get a unique id \r\n       // bytes32 id = keccak256(abi.encodePacked(_uuid, _caseName, _isStudent, _date)); \r\n\r\n        //require that the case be unique (not already added) \r\n        require(!caseExists(_uuid));\r\n\r\n        uint[] memory datesHistory = new uint[](1);\r\n        datesHistory[0] = _date;\r\n        CaseState[] memory statesHistory = new CaseState[](1);\r\n        statesHistory[0] = CaseState.Undefined;\r\n        uint[] memory paymentDateHistory = new uint[](1);\r\n        paymentDateHistory[0] = 0;\r\n        uint[] memory paymentHistory = new uint[](1);\r\n        paymentHistory[0] = 0;\r\n\r\n        //add the case \r\n        //cases.push(currCase);\r\n        cases.push(Case(_uuid, _date, datesHistory, statesHistory, CaseState.Undefined, paymentDateHistory, paymentHistory, 0)); \r\n        uint newIndex = cases.length-1;\r\n        caseUuidToIndex[_uuid] = newIndex;\r\n        \r\n        //return the unique id of the new case\r\n        return newIndex;\r\n    }\r\n\r\n    function updateCase(bytes16 _uuid, uint _date, CaseState _state, uint _offset) public {\r\n\r\n        require(caseExists(_uuid));\r\n        \r\n        uint index = _getCaseIndex(_uuid);\r\n        Case storage theCase = cases[index];\r\n        \r\n        theCase.latestDate = _date;\r\n        theCase.datesHistory.push(_date);\r\n        theCase.statesHistory.push(_state);\r\n        theCase.currState= _state;\r\n        theCase.paymentOffset = _offset;\r\n        \r\n    }\r\n\r\n    function addPayment(bytes16 _uuid, CaseState _state, uint _pDate, uint _payHistory) public{\r\n\r\n        require(caseExists(_uuid));\r\n        \r\n        uint index = _getCaseIndex(_uuid);\r\n        Case storage theCase = cases[index];\r\n\r\n        if(theCase.paymentDateHistory[0] == 0){\r\n            theCase.paymentDateHistory[0] = _pDate;\r\n            theCase.paymentValueHistory[0] = _payHistory;\r\n        } else{\r\n            theCase.paymentDateHistory.push(_pDate);\r\n            theCase.paymentValueHistory.push(_payHistory);\r\n        }\r\n\r\n        theCase.paymentOffset = 0;\r\n        theCase.latestDate = _pDate;\r\n        theCase.datesHistory.push(_pDate);\r\n        theCase.statesHistory.push(_state);\r\n        theCase.currState= _state;\r\n\r\n    }\r\n\r\n    function caseExists(bytes16 _uuid) public view returns (bool) {\r\n        if (cases.length == 0)\r\n            return false;\r\n\r\n        if(cases[_getCaseIndex(_uuid)].uuid == _uuid){\r\n            return true;\r\n        }\r\n    }\r\n\r\n    function getAllCases() public view returns (bytes16[] memory) {\r\n        bytes16[] memory output = new bytes16[](cases.length); \r\n\r\n        //get all ids \r\n        if (cases.length > 0) {\r\n            uint index = 0;\r\n            for (uint n = cases.length; n > 0; n--) {\r\n                output[index++] = cases[n-1].uuid;\r\n            }\r\n        }\r\n        \r\n        return output; \r\n    }\r\n\r\n    function getCase(bytes16 _uuid) public view returns (\r\n        bytes16 uuid,\r\n        uint creationDate,\r\n        uint[] memory datesHistory,\r\n        CaseState[] memory statesHistory,\r\n        CaseState currState,\r\n        uint[] memory paymentDateHistory,\r\n        uint[] memory paymentValueHistory,\r\n        uint paymentOffset) {\r\n            \r\n        require(caseExists(_uuid));\r\n\r\n        Case storage theCase = cases[_getCaseIndex(_uuid)];\r\n        return (theCase.uuid, theCase.latestDate, \r\n                 theCase.datesHistory, theCase.statesHistory, theCase.currState,\r\n                 theCase.paymentDateHistory, theCase.paymentValueHistory, theCase.paymentOffset); \r\n        \r\n    }\r\n\r\n    function deleteCase(bytes16 _uuid) public {\r\n        require(caseExists(_uuid));\r\n\r\n        uint index = _getCaseIndex(_uuid);\r\n        if(index != cases.length - 1){\r\n            // switch the case to be deleted with the last case of the array and then pop it\r\n            Case memory caseToDelete = cases[index];\r\n            cases[index] = cases[cases.length - 1];\r\n            cases[cases.length - 1] = caseToDelete;\r\n        }\r\n\r\n        cases.pop();\r\n    }\r\n}",
  "sourcePath": "C:/dev/Ethereum/case-monitor-contract/case-monitor-contract/contracts/CaseMonitor.sol",
  "compiler": {
    "name": "solc",
    "version": "0.5.16+commit.9c3226ce.Emscripten.clang"
  },
  "schemaVersion": "3.2.3",
  "updatedAt": "2020-10-08T20:54:29.216Z",
  "networkType": "ethereum",
  "devdoc": {
    "methods": {}
  },
  "userdoc": {
    "methods": {}
  }
}