{
  "contractName": "CaseMonitor",
  "abi": [
    {
      "constant": true,
      "inputs": [
        {
          "internalType": "bytes16",
          "name": "_uuid",
          "type": "bytes16"
        }
      ],
      "name": "_getCaseIndex",
      "outputs": [
        {
          "internalType": "uint256",
          "name": "",
          "type": "uint256"
        }
      ],
      "payable": false,
      "stateMutability": "view",
      "type": "function"
    },
    {
      "constant": false,
      "inputs": [
        {
          "internalType": "bytes16",
          "name": "_uuid",
          "type": "bytes16"
        },
        {
          "internalType": "string",
          "name": "_caseName",
          "type": "string"
        },
        {
          "internalType": "bool",
          "name": "_isStudent",
          "type": "bool"
        },
        {
          "internalType": "uint256",
          "name": "_date",
          "type": "uint256"
        }
      ],
      "name": "addCase",
      "outputs": [
        {
          "internalType": "uint256",
          "name": "",
          "type": "uint256"
        }
      ],
      "payable": false,
      "stateMutability": "nonpayable",
      "type": "function"
    },
    {
      "constant": false,
      "inputs": [
        {
          "internalType": "bytes16",
          "name": "_uuid",
          "type": "bytes16"
        },
        {
          "internalType": "string",
          "name": "_caseName",
          "type": "string"
        },
        {
          "internalType": "bool",
          "name": "_isStudent",
          "type": "bool"
        },
        {
          "internalType": "uint256",
          "name": "_date",
          "type": "uint256"
        },
        {
          "internalType": "enum CaseMonitor.CaseState",
          "name": "_state",
          "type": "uint8"
        }
      ],
      "name": "updateCase",
      "outputs": [],
      "payable": false,
      "stateMutability": "nonpayable",
      "type": "function"
    },
    {
      "constant": true,
      "inputs": [
        {
          "internalType": "bytes16",
          "name": "_uuid",
          "type": "bytes16"
        }
      ],
      "name": "caseExists",
      "outputs": [
        {
          "internalType": "bool",
          "name": "",
          "type": "bool"
        }
      ],
      "payable": false,
      "stateMutability": "view",
      "type": "function"
    },
    {
      "constant": true,
      "inputs": [],
      "name": "getAllCases",
      "outputs": [
        {
          "internalType": "bytes16[]",
          "name": "",
          "type": "bytes16[]"
        }
      ],
      "payable": false,
      "stateMutability": "view",
      "type": "function"
    },
    {
      "constant": true,
      "inputs": [
        {
          "internalType": "bytes16",
          "name": "_uuid",
          "type": "bytes16"
        }
      ],
      "name": "getCase",
      "outputs": [
        {
          "internalType": "bytes16",
          "name": "uuid",
          "type": "bytes16"
        },
        {
          "internalType": "string",
          "name": "caseName",
          "type": "string"
        },
        {
          "internalType": "bool",
          "name": "isStudent",
          "type": "bool"
        },
        {
          "internalType": "uint256",
          "name": "date",
          "type": "uint256"
        },
        {
          "internalType": "enum CaseMonitor.CaseState",
          "name": "state",
          "type": "uint8"
        }
      ],
      "payable": false,
      "stateMutability": "view",
      "type": "function"
    }
  ],
  "bytecode": "0x608060405234801561001057600080fd5b50610aed806100206000396000f3fe608060405234801561001057600080fd5b50600436106100625760003560e01c806345b10ce414610067578063bb98be40146100bc578063d36cf4a3146101be578063d4988c15146102b9578063d840e71714610312578063fb40c22a14610420575b600080fd5b6100a66004803603602081101561007d57600080fd5b8101908080356fffffffffffffffffffffffffffffffff1916906020019092919050505061047f565b6040518082815260200191505060405180910390f35b6101a8600480360360808110156100d257600080fd5b8101908080356fffffffffffffffffffffffffffffffff191690602001909291908035906020019064010000000081111561010c57600080fd5b82018360208201111561011e57600080fd5b8035906020019184600183028401116401000000008311171561014057600080fd5b91908080601f016020809104026020016040519081016040528093929190818152602001838380828437600081840152601f19601f820116905080830192505050505050509192919290803515159060200190929190803590602001909291905050506104c2565b6040518082815260200191505060405180910390f35b6102b7600480360360a08110156101d457600080fd5b8101908080356fffffffffffffffffffffffffffffffff191690602001909291908035906020019064010000000081111561020e57600080fd5b82018360208201111561022057600080fd5b8035906020019184600183028401116401000000008311171561024257600080fd5b91908080601f016020809104026020016040519081016040528093929190818152602001838380828437600081840152601f19601f82011690508083019250505050505050919291929080351515906020019092919080359060200190929190803560ff169060200190929190505050610646565b005b6102f8600480360360208110156102cf57600080fd5b8101908080356fffffffffffffffffffffffffffffffff191690602001909291905050506106ef565b604051808215151515815260200191505060405180910390f35b6103516004803603602081101561032857600080fd5b8101908080356fffffffffffffffffffffffffffffffff19169060200190929190505050610777565b60405180866fffffffffffffffffffffffffffffffff19166fffffffffffffffffffffffffffffffff1916815260200180602001851515151581526020018481526020018360038111156103a157fe5b60ff168152602001828103825286818151815260200191508051906020019080838360005b838110156103e15780820151818401526020810190506103c6565b50505050905090810190601f16801561040e5780820380516001836020036101000a031916815260200191505b50965050505050505060405180910390f35b6104286108a7565b6040518080602001828103825283818151815260200191508051906020019060200280838360005b8381101561046b578082015181840152602081019050610450565b505050509050019250505060405180910390f35b600060016000836fffffffffffffffffffffffffffffffff19166fffffffffffffffffffffffffffffffff19168152602001908152602001600020549050919050565b60006104cd856106ef565b156104d757600080fd5b60006040518060a00160405280876fffffffffffffffffffffffffffffffff1916815260200186815260200185151581526020018481526020016000600381111561051e57fe5b8152509080600181540180825580915050906001820390600052602060002090600502016000909192909190915060008201518160000160006101000a8154816fffffffffffffffffffffffffffffffff021916908360801c02179055506020820151816001019080519060200190610598929190610993565b5060408201518160020160006101000a81548160ff0219169083151502179055506060820151816003015560808201518160040160006101000a81548160ff021916908360038111156105e757fe5b0217905550505050600060016000805490500390508060016000886fffffffffffffffffffffffffffffffff19166fffffffffffffffffffffffffffffffff191681526020019081526020016000208190555080915050949350505050565b61064f856106ef565b61065857600080fd5b60006106638661047f565b9050600080828154811061067357fe5b906000526020600020906005020190508581600101908051906020019061069b929190610a13565b50848160020160006101000a81548160ff021916908315150217905550838160030181905550828160040160006101000a81548160ff021916908360038111156106e157fe5b021790555050505050505050565b60008060008054905014156107075760009050610772565b816fffffffffffffffffffffffffffffffff191660006107268461047f565b8154811061073057fe5b906000526020600020906005020160000160009054906101000a900460801b6fffffffffffffffffffffffffffffffff191614156107715760019050610772565b5b919050565b600060606000806000610789866106ef565b61079257600080fd5b60008061079e8861047f565b815481106107a857fe5b906000526020600020906005020190508060000160009054906101000a900460801b816001018260020160009054906101000a900460ff1683600301548460040160009054906101000a900460ff16838054600181600116156101000203166002900480601f01602080910402602001604051908101604052809291908181526020018280546001816001161561010002031660029004801561088c5780601f106108615761010080835404028352916020019161088c565b820191906000526020600020905b81548152906001019060200180831161086f57829003601f168201915b50505050509350955095509550955095505091939590929450565b6060806000805490506040519080825280602002602001820160405280156108de5781602001602082028038833980820191505090505b50905060008080549050111561098c5760008090506000808054905090505b6000811115610989576000600182038154811061091657fe5b906000526020600020906005020160000160009054906101000a900460801b83838060010194508151811061094757fe5b60200260200101906fffffffffffffffffffffffffffffffff191690816fffffffffffffffffffffffffffffffff1916815250508080600190039150506108fd565b50505b8091505090565b828054600181600116156101000203166002900490600052602060002090601f016020900481019282601f106109d457805160ff1916838001178555610a02565b82800160010185558215610a02579182015b82811115610a015782518255916020019190600101906109e6565b5b509050610a0f9190610a93565b5090565b828054600181600116156101000203166002900490600052602060002090601f016020900481019282601f10610a5457805160ff1916838001178555610a82565b82800160010185558215610a82579182015b82811115610a81578251825591602001919060010190610a66565b5b509050610a8f9190610a93565b5090565b610ab591905b80821115610ab1576000816000905550600101610a99565b5090565b9056fea265627a7a723158208ed0ba47cf48236a7d6fb684fecd8a736a674e57019f35b7336136c5af67613764736f6c63430005100032",
  "source": "pragma solidity >=0.4.21;\r\n\r\ncontract CaseMonitor{\r\n\r\n    Case[] cases; \r\n    mapping(bytes16 => uint) caseUuidToIndex; \r\n\r\n    //defines a case along with its state\r\n    struct Case {\r\n        bytes16 uuid;\r\n        string caseName;\r\n        bool isStudent;\r\n        uint date; \r\n        CaseState state;\r\n    }\r\n\r\n    //possible case states \r\n    enum CaseState {\r\n        Undefined,    //case has not been processed\r\n        Accepted,     //case has been accepted\r\n        Rejected,     //case has been rejected\r\n        Paid          //case has been paid \r\n    }\r\n\r\n    function _getCaseIndex(bytes16 _uuid) public view returns (uint) {\r\n        return caseUuidToIndex[_uuid]; \r\n    }\r\n\r\n    function addCase(bytes16 _uuid, string memory _caseName, bool _isStudent, uint _date) public returns(uint){\r\n\r\n        //hash the crucial info to get a unique id \r\n       // bytes32 id = keccak256(abi.encodePacked(_uuid, _caseName, _isStudent, _date)); \r\n\r\n        //require that the case be unique (not already added) \r\n        require(!caseExists(_uuid));\r\n        \r\n        //add the case \r\n        cases.push(Case(_uuid, _caseName, _isStudent, _date, CaseState.Undefined)); \r\n        uint newIndex = cases.length-1;\r\n        caseUuidToIndex[_uuid] = newIndex;\r\n        \r\n        //return the unique id of the new case\r\n        return newIndex;\r\n    }\r\n\r\n    function updateCase(bytes16 _uuid, string memory _caseName, bool _isStudent, uint _date, CaseState _state) public {\r\n\r\n        require(caseExists(_uuid));\r\n        \r\n        uint index = _getCaseIndex(_uuid);\r\n        Case storage theCase = cases[index];\r\n        \r\n        theCase.caseName = _caseName;\r\n        theCase.isStudent = _isStudent;\r\n        theCase.date = _date;\r\n        theCase.state= _state;\r\n        \r\n    }\r\n\r\n    function caseExists(bytes16 _uuid) public view returns (bool) {\r\n        if (cases.length == 0)\r\n            return false;\r\n\r\n        if(cases[_getCaseIndex(_uuid)].uuid == _uuid){\r\n            return true;\r\n        }\r\n    }\r\n\r\n    function getAllCases() public view returns (bytes16[] memory) {\r\n        bytes16[] memory output = new bytes16[](cases.length); \r\n\r\n        //get all ids \r\n        if (cases.length > 0) {\r\n            uint index = 0;\r\n            for (uint n = cases.length; n > 0; n--) {\r\n                output[index++] = cases[n-1].uuid;\r\n            }\r\n        }\r\n        \r\n        return output; \r\n    }\r\n\r\n    function getCase(bytes16 _uuid) public view returns (\r\n        bytes16 uuid,\r\n        string memory caseName,\r\n        bool isStudent,\r\n        uint date, \r\n        CaseState state) {\r\n            \r\n        require(caseExists(_uuid));\r\n\r\n        Case storage theCase = cases[_getCaseIndex(_uuid)];\r\n        return (theCase.uuid, theCase.caseName, theCase.isStudent, theCase.date, theCase.state); \r\n        \r\n    }\r\n}",
  "sourcePath": "C:/dev/Ethereum/case-monitor-contract/case-monitor-contract/contracts/CaseMonitor.sol",
  "compiler": {
    "name": "solc",
    "version": "0.5.16+commit.9c3226ce.Emscripten.clang"
  },
  "schemaVersion": "3.2.3",
  "updatedAt": "2020-09-10T12:46:16.581Z",
  "devdoc": {
    "methods": {}
  },
  "userdoc": {
    "methods": {}
  }
}