{
  "contractName": "CaseMonitor",
  "abi": [
    {
      "constant": true,
      "inputs": [
        {
          "internalType": "bytes16",
          "name": "_uuid",
          "type": "bytes16"
        }
      ],
      "name": "_getCaseIndex",
      "outputs": [
        {
          "internalType": "uint256",
          "name": "",
          "type": "uint256"
        }
      ],
      "payable": false,
      "stateMutability": "view",
      "type": "function"
    },
    {
      "constant": false,
      "inputs": [
        {
          "internalType": "bytes16",
          "name": "_uuid",
          "type": "bytes16"
        },
        {
          "internalType": "string",
          "name": "_caseName",
          "type": "string"
        },
        {
          "internalType": "bool",
          "name": "_isStudent",
          "type": "bool"
        },
        {
          "internalType": "uint256",
          "name": "_date",
          "type": "uint256"
        }
      ],
      "name": "addCase",
      "outputs": [
        {
          "internalType": "uint256",
          "name": "",
          "type": "uint256"
        }
      ],
      "payable": false,
      "stateMutability": "nonpayable",
      "type": "function"
    },
    {
      "constant": false,
      "inputs": [
        {
          "internalType": "bytes16",
          "name": "_uuid",
          "type": "bytes16"
        },
        {
          "internalType": "string",
          "name": "_caseName",
          "type": "string"
        },
        {
          "internalType": "bool",
          "name": "_isStudent",
          "type": "bool"
        },
        {
          "internalType": "uint256",
          "name": "_date",
          "type": "uint256"
        },
        {
          "internalType": "enum CaseMonitor.CaseState",
          "name": "_state",
          "type": "uint8"
        }
      ],
      "name": "updateCase",
      "outputs": [],
      "payable": false,
      "stateMutability": "nonpayable",
      "type": "function"
    },
    {
      "constant": true,
      "inputs": [
        {
          "internalType": "bytes16",
          "name": "_uuid",
          "type": "bytes16"
        }
      ],
      "name": "caseExists",
      "outputs": [
        {
          "internalType": "bool",
          "name": "",
          "type": "bool"
        }
      ],
      "payable": false,
      "stateMutability": "view",
      "type": "function"
    },
    {
      "constant": true,
      "inputs": [],
      "name": "getAllCases",
      "outputs": [
        {
          "internalType": "bytes16[]",
          "name": "",
          "type": "bytes16[]"
        }
      ],
      "payable": false,
      "stateMutability": "view",
      "type": "function"
    },
    {
      "constant": true,
      "inputs": [
        {
          "internalType": "bytes16",
          "name": "_uuid",
          "type": "bytes16"
        }
      ],
      "name": "getCase",
      "outputs": [
        {
          "internalType": "bytes16",
          "name": "uuid",
          "type": "bytes16"
        },
        {
          "internalType": "string",
          "name": "caseName",
          "type": "string"
        },
        {
          "internalType": "bool",
          "name": "isStudent",
          "type": "bool"
        },
        {
          "internalType": "uint256",
          "name": "creationDate",
          "type": "uint256"
        },
        {
          "internalType": "uint256[]",
          "name": "datesHistory",
          "type": "uint256[]"
        },
        {
          "internalType": "enum CaseMonitor.CaseState[]",
          "name": "statesHistory",
          "type": "uint8[]"
        },
        {
          "internalType": "enum CaseMonitor.CaseState",
          "name": "currState",
          "type": "uint8"
        }
      ],
      "payable": false,
      "stateMutability": "view",
      "type": "function"
    }
  ],
  "bytecode": "0x608060405234801561001057600080fd5b50610f02806100206000396000f3fe608060405234801561001057600080fd5b50600436106100625760003560e01c806345b10ce414610067578063bb98be40146100bc578063d36cf4a3146101be578063d4988c15146102b9578063d840e71714610312578063fb40c22a146104b0575b600080fd5b6100a66004803603602081101561007d57600080fd5b8101908080356fffffffffffffffffffffffffffffffff1916906020019092919050505061050f565b6040518082815260200191505060405180910390f35b6101a8600480360360808110156100d257600080fd5b8101908080356fffffffffffffffffffffffffffffffff191690602001909291908035906020019064010000000081111561010c57600080fd5b82018360208201111561011e57600080fd5b8035906020019184600183028401116401000000008311171561014057600080fd5b91908080601f016020809104026020016040519081016040528093929190818152602001838380828437600081840152601f19601f82011690508083019250505050505050919291929080351515906020019092919080359060200190929190505050610552565b6040518082815260200191505060405180910390f35b6102b7600480360360a08110156101d457600080fd5b8101908080356fffffffffffffffffffffffffffffffff191690602001909291908035906020019064010000000081111561020e57600080fd5b82018360208201111561022057600080fd5b8035906020019184600183028401116401000000008311171561024257600080fd5b91908080601f016020809104026020016040519081016040528093929190818152602001838380828437600081840152601f19601f82011690508083019250505050505050919291929080351515906020019092919080359060200190929190803560ff1690602001909291905050506107d5565b005b6102f8600480360360208110156102cf57600080fd5b8101908080356fffffffffffffffffffffffffffffffff191690602001909291905050506108f5565b604051808215151515815260200191505060405180910390f35b6103516004803603602081101561032857600080fd5b8101908080356fffffffffffffffffffffffffffffffff1916906020019092919050505061097d565b60405180886fffffffffffffffffffffffffffffffff19166fffffffffffffffffffffffffffffffff19168152602001806020018715151515815260200186815260200180602001806020018560038111156103a957fe5b60ff16815260200184810384528a818151815260200191508051906020019080838360005b838110156103e95780820151818401526020810190506103ce565b50505050905090810190601f1680156104165780820380516001836020036101000a031916815260200191505b50848103835287818151815260200191508051906020019060200280838360005b83811015610452578082015181840152602081019050610437565b50505050905001848103825286818151815260200191508051906020019060200280838360005b83811015610494578082015181840152602081019050610479565b505050509050019a505050505050505050505060405180910390f35b6104b8610b90565b6040518080602001828103825283818151815260200191508051906020019060200280838360005b838110156104fb5780820151818401526020810190506104e0565b505050509050019250505060405180910390f35b600060016000836fffffffffffffffffffffffffffffffff19166fffffffffffffffffffffffffffffffff19168152602001908152602001600020549050919050565b600061055d856108f5565b1561056757600080fd5b606060016040519080825280602002602001820160405280156105995781602001602082028038833980820191505090505b50905082816000815181106105aa57fe5b602002602001018181525050606060016040519080825280602002602001820160405280156105e85781602001602082028038833980820191505090505b5090506000816000815181106105fa57fe5b6020026020010190600381111561060d57fe5b9081600381111561061a57fe5b8152505060006040518060e00160405280896fffffffffffffffffffffffffffffffff1916815260200188815260200187151581526020018681526020018481526020018381526020016000600381111561067157fe5b8152509080600181540180825580915050906001820390600052602060002090600702016000909192909190915060008201518160000160006101000a8154816fffffffffffffffffffffffffffffffff021916908360801c021790555060208201518160010190805190602001906106eb929190610c7c565b5060408201518160020160006101000a81548160ff021916908315150217905550606082015181600301556080820151816004019080519060200190610732929190610cfc565b5060a082015181600501908051906020019061074f929190610d49565b5060c08201518160060160006101000a81548160ff0219169083600381111561077457fe5b02179055505050506000600160008054905003905080600160008a6fffffffffffffffffffffffffffffffff19166fffffffffffffffffffffffffffffffff1916815260200190815260200160002081905550809350505050949350505050565b6107de856108f5565b6107e757600080fd5b60006107f28661050f565b9050600080828154811061080257fe5b906000526020600020906007020190508581600101908051906020019061082a929190610df8565b50848160020160006101000a81548160ff021916908315150217905550806004018490806001815401808255809150509060018203906000526020600020016000909192909190915055508060050183908060018154018082558091505090600182039060005260206000209060209182820401919006909192909190916101000a81548160ff021916908360038111156108c157fe5b021790555050828160060160006101000a81548160ff021916908360038111156108e757fe5b021790555050505050505050565b600080600080549050141561090d5760009050610978565b816fffffffffffffffffffffffffffffffff1916600061092c8461050f565b8154811061093657fe5b906000526020600020906007020160000160009054906101000a900460801b6fffffffffffffffffffffffffffffffff191614156109775760019050610978565b5b919050565b600060606000806060806000610992886108f5565b61099b57600080fd5b6000806109a78a61050f565b815481106109b157fe5b906000526020600020906007020190508060000160009054906101000a900460801b816001018260020160009054906101000a900460ff16836003015484600401856005018660060160009054906101000a900460ff16858054600181600116156101000203166002900480601f016020809104026020016040519081016040528092919081815260200182805460018160011615610100020316600290048015610a9d5780601f10610a7257610100808354040283529160200191610a9d565b820191906000526020600020905b815481529060010190602001808311610a8057829003601f168201915b5050505050955082805480602002602001604051908101604052809291908181526020018280548015610aef57602002820191906000526020600020905b815481526020019060010190808311610adb575b5050505050925081805480602002602001604051908101604052809291908181526020018280548015610b6f57602002820191906000526020600020906000905b82829054906101000a900460ff166003811115610b4957fe5b81526020019060010190602082600001049283019260010382029150808411610b305790505b50505050509150975097509750975097509750975050919395979092949650565b606080600080549050604051908082528060200260200182016040528015610bc75781602001602082028038833980820191505090505b509050600080805490501115610c755760008090506000808054905090505b6000811115610c725760006001820381548110610bff57fe5b906000526020600020906007020160000160009054906101000a900460801b838380600101945081518110610c3057fe5b60200260200101906fffffffffffffffffffffffffffffffff191690816fffffffffffffffffffffffffffffffff191681525050808060019003915050610be6565b50505b8091505090565b828054600181600116156101000203166002900490600052602060002090601f016020900481019282601f10610cbd57805160ff1916838001178555610ceb565b82800160010185558215610ceb579182015b82811115610cea578251825591602001919060010190610ccf565b5b509050610cf89190610e78565b5090565b828054828255906000526020600020908101928215610d38579160200282015b82811115610d37578251825591602001919060010190610d1c565b5b509050610d459190610e78565b5090565b82805482825590600052602060002090601f01602090048101928215610de75791602002820160005b83821115610db857835183826101000a81548160ff02191690836003811115610d9757fe5b02179055509260200192600101602081600001049283019260010302610d72565b8015610de55782816101000a81549060ff0219169055600101602081600001049283019260010302610db8565b505b509050610df49190610e9d565b5090565b828054600181600116156101000203166002900490600052602060002090601f016020900481019282601f10610e3957805160ff1916838001178555610e67565b82800160010185558215610e67579182015b82811115610e66578251825591602001919060010190610e4b565b5b509050610e749190610e78565b5090565b610e9a91905b80821115610e96576000816000905550600101610e7e565b5090565b90565b610eca91905b80821115610ec657600081816101000a81549060ff021916905550600101610ea3565b5090565b9056fea265627a7a72315820925130f689306e472cb987b1b3413a5e2180aecf214ad9955f286b2598cc935364736f6c63430005100032",
  "source": "pragma solidity >=0.4.21;\r\n\r\ncontract CaseMonitor{\r\n\r\n    Case[] cases; \r\n    mapping(bytes16 => uint) caseUuidToIndex; \r\n\r\n    \r\n\r\n    //defines a case along with its state\r\n    struct Case {\r\n        bytes16 uuid;\r\n        string caseName;\r\n        bool isStudent;\r\n        uint creationDate;\r\n        uint[] datesHistory;\r\n        CaseState[] statesHistory; \r\n        CaseState currState;\r\n    }\r\n\r\n    //possible case states \r\n    enum CaseState {\r\n        Undefined,    //case has not been processed\r\n        Accepted,     //case has been accepted\r\n        Rejected,     //case has been rejected\r\n        Paid          //case has been paid \r\n    }\r\n\r\n    //Case currCase;\r\n\r\n    function _getCaseIndex(bytes16 _uuid) public view returns (uint) {\r\n        return caseUuidToIndex[_uuid]; \r\n    }\r\n\r\n    function addCase(bytes16 _uuid, string memory _caseName, bool _isStudent, uint _date) public returns(uint){\r\n\r\n        //hash the crucial info to get a unique id \r\n       // bytes32 id = keccak256(abi.encodePacked(_uuid, _caseName, _isStudent, _date)); \r\n\r\n        //require that the case be unique (not already added) \r\n        require(!caseExists(_uuid));\r\n\r\n        // currCase.uuid = _uuid;\r\n        // currCase.caseName = _caseName;\r\n        // currCase.isStudent = _isStudent;\r\n        // currCase.creationDate = _date;\r\n        // currCase.datesHistory.push(_date);\r\n        // currCase.statesHistory.push(CaseState.Undefined);\r\n        // currCase.currState = CaseState.Undefined;\r\n\r\n        uint[] memory datesHistory = new uint[](1);\r\n        datesHistory[0] = _date;\r\n        CaseState[] memory statesHistory = new CaseState[](1);\r\n        statesHistory[0] = CaseState.Undefined;\r\n\r\n        //add the case \r\n        //cases.push(currCase);\r\n        cases.push(Case(_uuid, _caseName, _isStudent, _date, datesHistory, statesHistory, CaseState.Undefined)); \r\n        uint newIndex = cases.length-1;\r\n        caseUuidToIndex[_uuid] = newIndex;\r\n        \r\n        //return the unique id of the new case\r\n        return newIndex;\r\n    }\r\n\r\n    function updateCase(bytes16 _uuid, string memory _caseName, bool _isStudent, uint _date, CaseState _state) public {\r\n\r\n        require(caseExists(_uuid));\r\n        \r\n        uint index = _getCaseIndex(_uuid);\r\n        Case storage theCase = cases[index];\r\n        \r\n        theCase.caseName = _caseName;\r\n        theCase.isStudent = _isStudent;\r\n        theCase.datesHistory.push(_date);\r\n        theCase.statesHistory.push(_state);\r\n        theCase.currState= _state;\r\n        \r\n    }\r\n\r\n    function caseExists(bytes16 _uuid) public view returns (bool) {\r\n        if (cases.length == 0)\r\n            return false;\r\n\r\n        if(cases[_getCaseIndex(_uuid)].uuid == _uuid){\r\n            return true;\r\n        }\r\n    }\r\n\r\n    function getAllCases() public view returns (bytes16[] memory) {\r\n        bytes16[] memory output = new bytes16[](cases.length); \r\n\r\n        //get all ids \r\n        if (cases.length > 0) {\r\n            uint index = 0;\r\n            for (uint n = cases.length; n > 0; n--) {\r\n                output[index++] = cases[n-1].uuid;\r\n            }\r\n        }\r\n        \r\n        return output; \r\n    }\r\n\r\n    function getCase(bytes16 _uuid) public view returns (\r\n        bytes16 uuid,\r\n        string memory caseName,\r\n        bool isStudent,\r\n        uint creationDate,\r\n        uint[] memory datesHistory,\r\n        CaseState[] memory statesHistory,\r\n        CaseState currState) {\r\n            \r\n        require(caseExists(_uuid));\r\n\r\n        Case storage theCase = cases[_getCaseIndex(_uuid)];\r\n        return (theCase.uuid, theCase.caseName, theCase.isStudent, theCase.creationDate, theCase.datesHistory, theCase.statesHistory, theCase.currState); \r\n        \r\n    }\r\n}",
  "sourcePath": "C:/dev/Ethereum/case-monitor-contract/case-monitor-contract/contracts/CaseMonitor.sol",
  "compiler": {
    "name": "solc",
    "version": "0.5.16+commit.9c3226ce.Emscripten.clang"
  },
  "schemaVersion": "3.2.3",
  "updatedAt": "2020-09-14T13:26:58.679Z",
  "devdoc": {
    "methods": {}
  },
  "userdoc": {
    "methods": {}
  }
}