{
  "contractName": "CaseMonitor",
  "abi": [
    {
      "constant": false,
      "inputs": [
        {
          "internalType": "string",
          "name": "_uuid",
          "type": "string"
        },
        {
          "internalType": "string",
          "name": "_caseName",
          "type": "string"
        },
        {
          "internalType": "bool",
          "name": "_isStudent",
          "type": "bool"
        },
        {
          "internalType": "uint256",
          "name": "_date",
          "type": "uint256"
        }
      ],
      "name": "addCase",
      "outputs": [],
      "payable": false,
      "stateMutability": "nonpayable",
      "type": "function"
    },
    {
      "constant": true,
      "inputs": [
        {
          "internalType": "bytes32",
          "name": "_caseId",
          "type": "bytes32"
        }
      ],
      "name": "caseExists",
      "outputs": [
        {
          "internalType": "bool",
          "name": "",
          "type": "bool"
        }
      ],
      "payable": false,
      "stateMutability": "view",
      "type": "function"
    },
    {
      "constant": true,
      "inputs": [],
      "name": "getAllCases",
      "outputs": [
        {
          "internalType": "bytes32[]",
          "name": "",
          "type": "bytes32[]"
        }
      ],
      "payable": false,
      "stateMutability": "view",
      "type": "function"
    },
    {
      "constant": true,
      "inputs": [
        {
          "internalType": "bytes32",
          "name": "_caseId",
          "type": "bytes32"
        }
      ],
      "name": "getCase",
      "outputs": [
        {
          "internalType": "bytes32",
          "name": "id",
          "type": "bytes32"
        },
        {
          "internalType": "string",
          "name": "uuid",
          "type": "string"
        },
        {
          "internalType": "string",
          "name": "caseName",
          "type": "string"
        },
        {
          "internalType": "bool",
          "name": "isStudent",
          "type": "bool"
        },
        {
          "internalType": "uint256",
          "name": "date",
          "type": "uint256"
        },
        {
          "internalType": "enum CaseMonitor.CaseState",
          "name": "state",
          "type": "uint8"
        }
      ],
      "payable": false,
      "stateMutability": "view",
      "type": "function"
    }
  ],
  "bytecode": "0x608060405234801561001057600080fd5b506109b2806100206000396000f3fe608060405234801561001057600080fd5b506004361061004c5760003560e01c8063487e19d514610051578063e4fe93f214610192578063edaab5b5146101d8578063fb40c22a14610340575b600080fd5b61007d6004803603602081101561006757600080fd5b810190808035906020019092919050505061039f565b604051808781526020018060200180602001861515151581526020018581526020018460038111156100ab57fe5b60ff168152602001838103835288818151815260200191508051906020019080838360005b838110156100eb5780820151818401526020810190506100d0565b50505050905090810190601f1680156101185780820380516001836020036101000a031916815260200191505b50838103825287818151815260200191508051906020019080838360005b83811015610151578082015181840152602081019050610136565b50505050905090810190601f16801561017e5780820380516001836020036101000a031916815260200191505b509850505050505050505060405180910390f35b6101be600480360360208110156101a857600080fd5b81019080803590602001909291905050506105a2565b604051808215151515815260200191505060405180910390f35b61033e600480360360808110156101ee57600080fd5b810190808035906020019064010000000081111561020b57600080fd5b82018360208201111561021d57600080fd5b8035906020019184600183028401116401000000008311171561023f57600080fd5b91908080601f016020809104026020016040519081016040528093929190818152602001838380828437600081840152601f19601f820116905080830192505050505050509192919290803590602001906401000000008111156102a257600080fd5b8201836020820111156102b457600080fd5b803590602001918460018302840111640100000000831117156102d657600080fd5b91908080601f016020809104026020016040519081016040528093929190818152602001838380828437600081840152601f19601f820116905080830192505050505050509192919290803515159060200190929190803590602001909291905050506105df565b005b610348610804565b6040518080602001828103825283818151815260200191508051906020019060200280838360005b8381101561038b578082015181840152602081019050610370565b505050509050019250505060405180910390f35b600060608060008060006103b2876105a2565b1561055d576000806103c3896108bb565b815481106103cd57fe5b90600052602060002090600602019050806000015481600101826002018360030160009054906101000a900460ff1684600401548560050160009054906101000a900460ff16848054600181600116156101000203166002900480601f0160208091040260200160405190810160405280929190818152602001828054600181600116156101000203166002900480156104a85780601f1061047d576101008083540402835291602001916104a8565b820191906000526020600020905b81548152906001019060200180831161048b57829003601f168201915b50505050509450838054600181600116156101000203166002900480601f0160208091040260200160405190810160405280929190818152602001828054600181600116156101000203166002900480156105445780601f1061051957610100808354040283529160200191610544565b820191906000526020600020905b81548152906001019060200180831161052757829003601f168201915b5050505050935096509650965096509650965050610599565b86600080600060405180602001604052806000815250929190604051806020016040528060008152509291908191509550955095509550955095505b91939550919395565b60008060008054905014156105ba57600090506105da565b600060016000848152602001908152602001600020549050600081119150505b919050565b6000848484846040516020018085805190602001908083835b6020831061061b57805182526020820191506020810190506020830392506105f8565b6001836020036101000a03801982511681845116808217855250505050505090500184805190602001908083835b6020831061066c5780518252602082019150602081019050602083039250610649565b6001836020036101000a038019825116818451168082178552505050505050905001831515151560f81b81526001018281526020019450505050506040516020818303038152906040528051906020012090506106c8816105a2565b156106d257600080fd5b60006040518060c0016040528083815260200187815260200186815260200185151581526020018481526020016000600381111561070c57fe5b815250908060018154018082558091505090600182039060005260206000209060060201600090919290919091506000820151816000015560208201518160010190805190602001906107609291906108d8565b50604082015181600201908051906020019061077d9291906108d8565b5060608201518160030160006101000a81548160ff0219169083151502179055506080820151816004015560a08201518160050160006101000a81548160ff021916908360038111156107cc57fe5b021790555050505060006001600080549050039050600181016001600084815260200190815260200160002081905550505050505050565b60608060008054905060405190808252806020026020018201604052801561083b5781602001602082028038833980820191505090505b5090506000808054905011156108b45760008090506000808054905090505b60008111156108b1576000600182038154811061087357fe5b90600052602060002090600602016000015483838060010194508151811061089757fe5b60200260200101818152505080806001900391505061085a565b50505b8091505090565b600060016000838152602001908152602001600020549050919050565b828054600181600116156101000203166002900490600052602060002090601f016020900481019282601f1061091957805160ff1916838001178555610947565b82800160010185558215610947579182015b8281111561094657825182559160200191906001019061092b565b5b5090506109549190610958565b5090565b61097a91905b8082111561097657600081600090555060010161095e565b5090565b9056fea265627a7a723158205252662d1c23eefbb261d52099e782e3399a7d39e0853aff89bc2d92d47f7d4964736f6c63430005100032",
  "source": "pragma solidity >=0.4.21;\r\n\r\ncontract CaseMonitor{\r\n\r\n    Case[] cases; \r\n    mapping(bytes32 => uint) caseIdToIndex; \r\n\r\n    //defines a case along with its state\r\n    struct Case {\r\n        bytes32 id;\r\n        string uuid;\r\n        string caseName;\r\n        bool isStudent;\r\n        uint date; \r\n        CaseState state;\r\n    }\r\n\r\n    //possible case states \r\n    enum CaseState {\r\n        Undefined,    //case has not been processed\r\n        Accepted,     //case has been accepted\r\n        Rejected,     //case has been rejected\r\n        Paid          //case has been paid \r\n    }\r\n\r\n    function _getCaseIndex(bytes32 _id) private view returns (uint) {\r\n        return caseIdToIndex[_id]; \r\n    }\r\n\r\n    function addCase(string memory _uuid, string memory _caseName, bool _isStudent, uint _date) public {\r\n\r\n        //hash the crucial info to get a unique id \r\n        bytes32 id = keccak256(abi.encodePacked(_uuid, _caseName, _isStudent, _date)); \r\n\r\n        //require that the case be unique (not already added) \r\n        require(!caseExists(id));\r\n        \r\n        //add the case \r\n        cases.push(Case(id, _uuid, _caseName, _isStudent, _date, CaseState.Undefined)); \r\n        uint newIndex = cases.length-1;\r\n        caseIdToIndex[id] = newIndex+1;\r\n        \r\n        //return the unique id of the new case\r\n        //return uuid;\r\n    }\r\n\r\n    function caseExists(bytes32 _caseId) public view returns (bool) {\r\n        if (cases.length == 0)\r\n            return false;\r\n        uint index = caseIdToIndex[_caseId]; \r\n        return (index > 0); \r\n    }\r\n\r\n    function getAllCases() public view returns (bytes32[] memory) {\r\n        bytes32[] memory output = new bytes32[](cases.length); \r\n\r\n        //get all ids \r\n        if (cases.length > 0) {\r\n            uint index = 0;\r\n            for (uint n = cases.length; n > 0; n--) {\r\n                output[index++] = cases[n-1].id;\r\n            }\r\n        }\r\n        \r\n        return output; \r\n    }\r\n\r\n    function getCase(bytes32 _caseId) public view returns (\r\n        bytes32 id,\r\n        string memory uuid,\r\n        string memory caseName,\r\n        bool isStudent,\r\n        uint date, \r\n        CaseState state) {\r\n        \r\n        //get the case\r\n        if (caseExists(_caseId)) {\r\n            Case storage theCase = cases[_getCaseIndex(_caseId)];\r\n            return (theCase.id, theCase.uuid, theCase.caseName, theCase.isStudent, theCase.date, theCase.state); \r\n        }\r\n        else {\r\n            return (_caseId, \"\",  \"\", false, 0, CaseState.Undefined); \r\n        }\r\n    }\r\n}",
  "sourcePath": "C:/dev/Ethereum/case-monitor-contract/contracts/CaseMonitor.sol",
  "compiler": {
    "name": "solc",
    "version": "0.5.16+commit.9c3226ce.Emscripten.clang"
  },
  "schemaVersion": "3.2.3",
  "updatedAt": "2020-09-07T20:16:37.131Z",
  "devdoc": {
    "methods": {}
  },
  "userdoc": {
    "methods": {}
  }
}