{
  "contractName": "CaseMonitor",
  "abi": [
    {
      "constant": true,
      "inputs": [
        {
          "internalType": "bytes16",
          "name": "_uuid",
          "type": "bytes16"
        }
      ],
      "name": "_getCaseIndex",
      "outputs": [
        {
          "internalType": "uint256",
          "name": "",
          "type": "uint256"
        }
      ],
      "payable": false,
      "stateMutability": "view",
      "type": "function"
    },
    {
      "constant": false,
      "inputs": [
        {
          "internalType": "bytes16",
          "name": "_uuid",
          "type": "bytes16"
        },
        {
          "internalType": "uint256",
          "name": "_date",
          "type": "uint256"
        }
      ],
      "name": "addCase",
      "outputs": [
        {
          "internalType": "uint256",
          "name": "",
          "type": "uint256"
        }
      ],
      "payable": false,
      "stateMutability": "nonpayable",
      "type": "function"
    },
    {
      "constant": false,
      "inputs": [
        {
          "internalType": "bytes16",
          "name": "_uuid",
          "type": "bytes16"
        },
        {
          "internalType": "uint256",
          "name": "_date",
          "type": "uint256"
        },
        {
          "internalType": "enum CaseMonitor.CaseState",
          "name": "_state",
          "type": "uint8"
        },
        {
          "internalType": "uint256",
          "name": "_offset",
          "type": "uint256"
        }
      ],
      "name": "updateCase",
      "outputs": [],
      "payable": false,
      "stateMutability": "nonpayable",
      "type": "function"
    },
    {
      "constant": false,
      "inputs": [
        {
          "internalType": "bytes16",
          "name": "_uuid",
          "type": "bytes16"
        },
        {
          "internalType": "enum CaseMonitor.CaseState",
          "name": "_state",
          "type": "uint8"
        },
        {
          "internalType": "uint256",
          "name": "_pDate",
          "type": "uint256"
        },
        {
          "internalType": "uint256",
          "name": "_payHistory",
          "type": "uint256"
        }
      ],
      "name": "addPayment",
      "outputs": [],
      "payable": false,
      "stateMutability": "nonpayable",
      "type": "function"
    },
    {
      "constant": true,
      "inputs": [
        {
          "internalType": "bytes16",
          "name": "_uuid",
          "type": "bytes16"
        }
      ],
      "name": "caseExists",
      "outputs": [
        {
          "internalType": "bool",
          "name": "",
          "type": "bool"
        }
      ],
      "payable": false,
      "stateMutability": "view",
      "type": "function"
    },
    {
      "constant": true,
      "inputs": [],
      "name": "getAllCases",
      "outputs": [
        {
          "internalType": "bytes16[]",
          "name": "",
          "type": "bytes16[]"
        }
      ],
      "payable": false,
      "stateMutability": "view",
      "type": "function"
    },
    {
      "constant": true,
      "inputs": [
        {
          "internalType": "bytes16",
          "name": "_uuid",
          "type": "bytes16"
        }
      ],
      "name": "getCase",
      "outputs": [
        {
          "internalType": "bytes16",
          "name": "uuid",
          "type": "bytes16"
        },
        {
          "internalType": "uint256",
          "name": "creationDate",
          "type": "uint256"
        },
        {
          "internalType": "uint256[]",
          "name": "datesHistory",
          "type": "uint256[]"
        },
        {
          "internalType": "enum CaseMonitor.CaseState[]",
          "name": "statesHistory",
          "type": "uint8[]"
        },
        {
          "internalType": "enum CaseMonitor.CaseState",
          "name": "currState",
          "type": "uint8"
        },
        {
          "internalType": "uint256[]",
          "name": "paymentDateHistory",
          "type": "uint256[]"
        },
        {
          "internalType": "uint256[]",
          "name": "paymentValueHistory",
          "type": "uint256[]"
        },
        {
          "internalType": "enum CaseMonitor.CaseState[]",
          "name": "paymentStateHistory",
          "type": "uint8[]"
        },
        {
          "internalType": "uint256",
          "name": "paymentOffset",
          "type": "uint256"
        }
      ],
      "payable": false,
      "stateMutability": "view",
      "type": "function"
    },
    {
      "constant": false,
      "inputs": [
        {
          "internalType": "bytes16",
          "name": "_uuid",
          "type": "bytes16"
        }
      ],
      "name": "deleteCase",
      "outputs": [],
      "payable": false,
      "stateMutability": "nonpayable",
      "type": "function"
    }
  ],
  "bytecode": "0x608060405234801561001057600080fd5b506118b8806100206000396000f3fe608060405234801561001057600080fd5b50600436106100885760003560e01c8063d4988c151161005b578063d4988c15146101e7578063d840e71714610240578063ea02882014610446578063fb40c22a146104a557610088565b8063195a00a41461008d578063235f4c12146100ef57806345b10ce41461013057806377c4327f14610185575b600080fd5b6100ed600480360360808110156100a357600080fd5b8101908080356fffffffffffffffffffffffffffffffff19169060200190929190803560ff1690602001909291908035906020019092919080359060200190929190505050610504565b005b61012e6004803603602081101561010557600080fd5b8101908080356fffffffffffffffffffffffffffffffff191690602001909291905050506106ab565b005b61016f6004803603602081101561014657600080fd5b8101908080356fffffffffffffffffffffffffffffffff19169060200190929190505050610cbe565b6040518082815260200191505060405180910390f35b6101e56004803603608081101561019b57600080fd5b8101908080356fffffffffffffffffffffffffffffffff1916906020019092919080359060200190929190803560ff16906020019092919080359060200190929190505050610d01565b005b610226600480360360208110156101fd57600080fd5b8101908080356fffffffffffffffffffffffffffffffff19169060200190929190505050610dfd565b604051808215151515815260200191505060405180910390f35b61027f6004803603602081101561025657600080fd5b8101908080356fffffffffffffffffffffffffffffffff19169060200190929190505050610e85565b604051808a6fffffffffffffffffffffffffffffffff19166fffffffffffffffffffffffffffffffff1916815260200189815260200180602001806020018860058111156102c957fe5b60ff16815260200180602001806020018060200187815260200186810386528d818151815260200191508051906020019060200280838360005b8381101561031e578082015181840152602081019050610303565b5050505090500186810385528c818151815260200191508051906020019060200280838360005b83811015610360578082015181840152602081019050610345565b5050505090500186810384528a818151815260200191508051906020019060200280838360005b838110156103a2578082015181840152602081019050610387565b50505050905001868103835289818151815260200191508051906020019060200280838360005b838110156103e45780820151818401526020810190506103c9565b50505050905001868103825288818151815260200191508051906020019060200280838360005b8381101561042657808201518184015260208101905061040b565b505050509050019e50505050505050505050505050505060405180910390f35b61048f6004803603604081101561045c57600080fd5b8101908080356fffffffffffffffffffffffffffffffff1916906020019092919080359060200190929190505050611124565b6040518082815260200191505060405180910390f35b6104ad6114e1565b6040518080602001828103825283818151815260200191508051906020019060200280838360005b838110156104f05780820151818401526020810190506104d5565b505050509050019250505060405180910390f35b61050d84610dfd565b61051657600080fd5b600061052185610cbe565b9050600080828154811061053157fe5b9060005260206000209060090201905060008160050160008154811061055357fe5b906000526020600020015414156105ea57838160050160008154811061057557fe5b9060005260206000200181905550828160060160008154811061059457fe5b906000526020600020018190555084816007016000815481106105b357fe5b90600052602060002090602091828204019190066101000a81548160ff021916908360058111156105e057fe5b0217905550610699565b80600501849080600181540180825580915050906001820390600052602060002001600090919290919091505550806006018390806001815401808255809150509060018203906000526020600020016000909192909190915055508060070185908060018154018082558091505090600182039060005260206000209060209182820401919006909192909190916101000a81548160ff0219169083600581111561069257fe5b0217905550505b60008160080181905550505050505050565b6106b481610dfd565b6106bd57600080fd5b60006106c882610cbe565b90506001600080549050038114610bff576106e16115cd565b600082815481106106ee57fe5b9060005260206000209060090201604051806101200160405290816000820160009054906101000a900460801b6fffffffffffffffffffffffffffffffff19166fffffffffffffffffffffffffffffffff19168152602001600182015481526020016002820180548060200260200160405190810160405280929190818152602001828054801561079e57602002820191906000526020600020905b81548152602001906001019080831161078a575b505050505081526020016003820180548060200260200160405190810160405280929190818152602001828054801561082457602002820191906000526020600020906000905b82829054906101000a900460ff1660058111156107fe57fe5b815260200190600101906020826000010492830192600103820291508084116107e55790505b505050505081526020016004820160009054906101000a900460ff16600581111561084b57fe5b600581111561085657fe5b8152602001600582018054806020026020016040519081016040528092919081815260200182805480156108a957602002820191906000526020600020905b815481526020019060010190808311610895575b505050505081526020016006820180548060200260200160405190810160405280929190818152602001828054801561090157602002820191906000526020600020905b8154815260200190600101908083116108ed575b505050505081526020016007820180548060200260200160405190810160405280929190818152602001828054801561098757602002820191906000526020600020906000905b82829054906101000a900460ff16600581111561096157fe5b815260200190600101906020826000010492830192600103820291508084116109485790505b5050505050815260200160088201548152505090506000600160008054905003815481106109b157fe5b9060005260206000209060090201600083815481106109cc57fe5b90600052602060002090600902016000820160009054906101000a900460801b8160000160006101000a8154816fffffffffffffffffffffffffffffffff021916908360801c0217905550600182015481600101556002820181600201908054610a37929190611637565b506003820181600301908054610a4e929190611689565b506004820160009054906101000a900460ff168160040160006101000a81548160ff02191690836005811115610a8057fe5b02179055506005820181600501908054610a9b929190611637565b506006820181600601908054610ab2929190611637565b506007820181600701908054610ac9929190611689565b506008820154816008015590505080600060016000805490500381548110610aed57fe5b906000526020600020906009020160008201518160000160006101000a8154816fffffffffffffffffffffffffffffffff021916908360801c0217905550602082015181600101556040820151816002019080519060200190610b519291906116e9565b506060820151816003019080519060200190610b6e929190611736565b5060808201518160040160006101000a81548160ff02191690836005811115610b9357fe5b021790555060a0820151816005019080519060200190610bb49291906116e9565b5060c0820151816006019080519060200190610bd19291906116e9565b5060e0820151816007019080519060200190610bee929190611736565b506101008201518160080155905050505b6000805480610c0a57fe5b6001900381819060005260206000209060090201600080820160006101000a8154906fffffffffffffffffffffffffffffffff02191690556001820160009055600282016000610c5a91906117e5565b600382016000610c6a9190611806565b6004820160006101000a81549060ff0219169055600582016000610c8e91906117e5565b600682016000610c9e91906117e5565b600782016000610cae9190611806565b6008820160009055505090555050565b600060016000836fffffffffffffffffffffffffffffffff19166fffffffffffffffffffffffffffffffff19168152602001908152602001600020549050919050565b610d0a84610dfd565b610d1357600080fd5b6000610d1e85610cbe565b90506000808281548110610d2e57fe5b90600052602060002090600902019050848160010181905550806002018590806001815401808255809150509060018203906000526020600020016000909192909190915055508060030184908060018154018082558091505090600182039060005260206000209060209182820401919006909192909190916101000a81548160ff02191690836005811115610dc157fe5b021790555050838160040160006101000a81548160ff02191690836005811115610de757fe5b0217905550828160080181905550505050505050565b6000806000805490501415610e155760009050610e80565b816fffffffffffffffffffffffffffffffff19166000610e3484610cbe565b81548110610e3e57fe5b906000526020600020906009020160000160009054906101000a900460801b6fffffffffffffffffffffffffffffffff19161415610e7f5760019050610e80565b5b919050565b600080606080600060608060606000610e9d8a610dfd565b610ea657600080fd5b600080610eb28c610cbe565b81548110610ebc57fe5b906000526020600020906009020190508060000160009054906101000a900460801b816001015482600201836003018460040160009054906101000a900460ff16856005018660060187600701886008015486805480602002602001604051908101604052809291908181526020018280548015610f5957602002820191906000526020600020905b815481526020019060010190808311610f45575b5050505050965085805480602002602001604051908101604052809291908181526020018280548015610fd957602002820191906000526020600020906000905b82829054906101000a900460ff166005811115610fb357fe5b81526020019060010190602082600001049283019260010382029150808411610f9a5790505b505050505095508380548060200260200160405190810160405280929190818152602001828054801561102b57602002820191906000526020600020905b815481526020019060010190808311611017575b505050505093508280548060200260200160405190810160405280929190818152602001828054801561107d57602002820191906000526020600020905b815481526020019060010190808311611069575b50505050509250818054806020026020016040519081016040528092919081815260200182805480156110fd57602002820191906000526020600020906000905b82829054906101000a900460ff1660058111156110d757fe5b815260200190600101906020826000010492830192600103820291508084116110be5790505b50505050509150995099509950995099509950995099509950509193959799909294969850565b600061112f83610dfd565b1561113957600080fd5b6060600160405190808252806020026020018201604052801561116b5781602001602082028038833980820191505090505b509050828160008151811061117c57fe5b602002602001018181525050606060016040519080825280602002602001820160405280156111ba5781602001602082028038833980820191505090505b5090506000816000815181106111cc57fe5b602002602001019060058111156111df57fe5b908160058111156111ec57fe5b81525050606060016040519080825280602002602001820160405280156112225781602001602082028038833980820191505090505b50905060008160008151811061123457fe5b602002602001018181525050606060016040519080825280602002602001820160405280156112725781602001602082028038833980820191505090505b50905060008160008151811061128457fe5b602002602001018181525050606060016040519080825280602002602001820160405280156112c25781602001602082028038833980820191505090505b5090506000816000815181106112d457fe5b602002602001019060058111156112e757fe5b908160058111156112f457fe5b8152505060006040518061012001604052808a6fffffffffffffffffffffffffffffffff191681526020018981526020018781526020018681526020016000600581111561133e57fe5b815260200185815260200184815260200183815260200160008152509080600181540180825580915050906001820390600052602060002090600902016000909192909190915060008201518160000160006101000a8154816fffffffffffffffffffffffffffffffff021916908360801c02179055506020820151816001015560408201518160020190805190602001906113db9291906116e9565b5060608201518160030190805190602001906113f8929190611736565b5060808201518160040160006101000a81548160ff0219169083600581111561141d57fe5b021790555060a082015181600501908051906020019061143e9291906116e9565b5060c082015181600601908051906020019061145b9291906116e9565b5060e0820151816007019080519060200190611478929190611736565b5061010082015181600801555050506000600160008054905003905080600160008b6fffffffffffffffffffffffffffffffff19166fffffffffffffffffffffffffffffffff191681526020019081526020016000208190555080965050505050505092915050565b6060806000805490506040519080825280602002602001820160405280156115185781602001602082028038833980820191505090505b5090506000808054905011156115c65760008090506000808054905090505b60008111156115c3576000600182038154811061155057fe5b906000526020600020906009020160000160009054906101000a900460801b83838060010194508151811061158157fe5b60200260200101906fffffffffffffffffffffffffffffffff191690816fffffffffffffffffffffffffffffffff191681525050808060019003915050611537565b50505b8091505090565b60405180610120016040528060006fffffffffffffffffffffffffffffffff191681526020016000815260200160608152602001606081526020016000600581111561161557fe5b8152602001606081526020016060815260200160608152602001600081525090565b8280548282559060005260206000209081019282156116785760005260206000209182015b8281111561167757825482559160010191906001019061165c565b5b509050611685919061182e565b5090565b82805482825590600052602060002090601f016020900481019282156116d857600052602060002091601f016020900482015b828111156116d75782548255916001019190600101906116bc565b5b5090506116e59190611853565b5090565b828054828255906000526020600020908101928215611725579160200282015b82811115611724578251825591602001919060010190611709565b5b509050611732919061182e565b5090565b82805482825590600052602060002090601f016020900481019282156117d45791602002820160005b838211156117a557835183826101000a81548160ff0219169083600581111561178457fe5b0217905550926020019260010160208160000104928301926001030261175f565b80156117d25782816101000a81549060ff02191690556001016020816000010492830192600103026117a5565b505b5090506117e19190611853565b5090565b5080546000825590600052602060002090810190611803919061182e565b50565b50805460008255601f01602090049060005260206000209081019061182b919061182e565b50565b61185091905b8082111561184c576000816000905550600101611834565b5090565b90565b61188091905b8082111561187c57600081816101000a81549060ff021916905550600101611859565b5090565b9056fea265627a7a7231582045dbdb07697e320f47194f3a496ba6809e5e779e55696887629d916eeb71aaa764736f6c63430005100032",
  "source": "pragma solidity >=0.4.21;\r\n\r\ncontract CaseMonitor{\r\n\r\n    Case[] cases; \r\n    mapping(bytes16 => uint) caseUuidToIndex; \r\n    \r\n    //defines a case along with its state\r\n    struct Case {\r\n        bytes16 uuid;\r\n        uint latestDate;\r\n        uint[] datesHistory;\r\n        CaseState[] statesHistory; \r\n        CaseState currState;\r\n        uint[] paymentDateHistory;\r\n        uint[] paymentValueHistory;\r\n        CaseState[] paymentStateHistory;\r\n        uint paymentOffset;\r\n    }\r\n\r\n    //possible case states \r\n    enum CaseState {\r\n        Undefined,    //case has not been processed\r\n        Accepted,     //case has been accepted\r\n        Rejected,     //case has been rejected\r\n        Paid,         //case has been paid \r\n        Paused,       //case is paused\r\n        Failed        //case has failed to be paid\r\n    }\r\n\r\n    function _getCaseIndex(bytes16 _uuid) public view returns (uint) {\r\n        return caseUuidToIndex[_uuid]; \r\n    }\r\n\r\n    function addCase(bytes16 _uuid, uint _date) public returns(uint){\r\n\r\n        //require that the case be unique (not already added) \r\n        require(!caseExists(_uuid));\r\n\r\n        uint[] memory datesHistory = new uint[](1);\r\n        datesHistory[0] = _date;\r\n        CaseState[] memory statesHistory = new CaseState[](1);\r\n        statesHistory[0] = CaseState.Undefined;\r\n        uint[] memory paymentDateHistory = new uint[](1);\r\n        paymentDateHistory[0] = 0;\r\n        uint[] memory paymentHistory = new uint[](1);\r\n        paymentHistory[0] = 0;\r\n        CaseState[] memory paymentStateHistory = new CaseState[](1);\r\n        paymentStateHistory[0] = CaseState.Undefined;\r\n\r\n        //add the case \r\n        cases.push(Case(_uuid, _date, datesHistory, statesHistory, CaseState.Undefined, paymentDateHistory, paymentHistory, paymentStateHistory, 0)); \r\n        uint newIndex = cases.length-1;\r\n        caseUuidToIndex[_uuid] = newIndex;\r\n        \r\n        //return the unique id of the new case\r\n        return newIndex;\r\n    }\r\n\r\n    function updateCase(bytes16 _uuid, uint _date, CaseState _state, uint _offset) public {\r\n\r\n        require(caseExists(_uuid));\r\n        \r\n        uint index = _getCaseIndex(_uuid);\r\n        Case storage theCase = cases[index];\r\n        \r\n        theCase.latestDate = _date;\r\n        theCase.datesHistory.push(_date);\r\n        theCase.statesHistory.push(_state);\r\n        theCase.currState= _state;\r\n        theCase.paymentOffset = _offset;\r\n    }\r\n\r\n    function addPayment(bytes16 _uuid, CaseState _state, uint _pDate, uint _payHistory) public{\r\n\r\n        require(caseExists(_uuid));\r\n        \r\n        uint index = _getCaseIndex(_uuid);\r\n        Case storage theCase = cases[index];\r\n\r\n        if(theCase.paymentDateHistory[0] == 0){\r\n            theCase.paymentDateHistory[0] = _pDate;\r\n            theCase.paymentValueHistory[0] = _payHistory;\r\n            theCase.paymentStateHistory[0] = _state;\r\n        } else{\r\n            theCase.paymentDateHistory.push(_pDate);\r\n            theCase.paymentValueHistory.push(_payHistory);\r\n            theCase.paymentStateHistory.push(_state);\r\n        }\r\n\r\n        theCase.paymentOffset = 0;\r\n        // theCase.latestDate = _pDate;\r\n        // theCase.datesHistory.push(_pDate);\r\n        // theCase.statesHistory.push(_state);\r\n        // theCase.currState= _state;\r\n    }\r\n\r\n    function caseExists(bytes16 _uuid) public view returns (bool) {\r\n        if (cases.length == 0)\r\n            return false;\r\n\r\n        if(cases[_getCaseIndex(_uuid)].uuid == _uuid){\r\n            return true;\r\n        }\r\n    }\r\n\r\n    function getAllCases() public view returns (bytes16[] memory) {\r\n        bytes16[] memory output = new bytes16[](cases.length); \r\n\r\n        //get all ids \r\n        if (cases.length > 0) {\r\n            uint index = 0;\r\n            for (uint n = cases.length; n > 0; n--) {\r\n                output[index++] = cases[n-1].uuid;\r\n            }\r\n        }\r\n        return output; \r\n    }\r\n\r\n    function getCase(bytes16 _uuid) public view returns (\r\n        bytes16 uuid,\r\n        uint creationDate,\r\n        uint[] memory datesHistory,\r\n        CaseState[] memory statesHistory,\r\n        CaseState currState,\r\n        uint[] memory paymentDateHistory,\r\n        uint[] memory paymentValueHistory,\r\n        CaseState[] memory paymentStateHistory,\r\n        uint paymentOffset) {\r\n            \r\n        require(caseExists(_uuid));\r\n\r\n        Case storage theCase = cases[_getCaseIndex(_uuid)];\r\n        return (theCase.uuid, theCase.latestDate, \r\n                 theCase.datesHistory, theCase.statesHistory, theCase.currState,\r\n                 theCase.paymentDateHistory, theCase.paymentValueHistory, theCase.paymentStateHistory, theCase.paymentOffset); \r\n        \r\n    }\r\n\r\n    function deleteCase(bytes16 _uuid) public {\r\n        require(caseExists(_uuid));\r\n\r\n        uint index = _getCaseIndex(_uuid);\r\n        if(index != cases.length - 1){\r\n            // switch the case to be deleted with the last case of the array and then pop it\r\n            Case memory caseToDelete = cases[index];\r\n            cases[index] = cases[cases.length - 1];\r\n            cases[cases.length - 1] = caseToDelete;\r\n        }\r\n\r\n        cases.pop();\r\n    }\r\n}",
  "sourcePath": "C:/dev/Ethereum/case-monitor-contract/case-monitor-contract/contracts/CaseMonitor.sol",
  "compiler": {
    "name": "solc",
    "version": "0.5.16+commit.9c3226ce.Emscripten.clang"
  },
  "schemaVersion": "3.2.3",
  "updatedAt": "2020-10-22T18:06:01.227Z",
  "networkType": "ethereum",
  "devdoc": {
    "methods": {}
  },
  "userdoc": {
    "methods": {}
  }
}